:020000040800F2
:10000000A8060020E1020008D71F0008C31D000851
:10001000E91E0008FB1B00088B28000800000000F8
:10002000000000000000000000000000252400087F
:10003000FF1B0008000000009121000811250008A6
:10004000FB020008FB020008FB020008FB0200089C
:10005000FB020008FB020008FB020008FB0200088C
:10006000FB020008FB020008FB020008FB0200087C
:10007000FB020008FB020008FB020008FB0200086C
:10008000FB020008FB020008FB0200080000000061
:10009000000000000000000000000000FB0200085B
:1000A000FB020008FB020008FB020008FB0200083C
:1000B000D7260008FB020008FB020008FB0200082C
:1000C000FB020008FB020008FB020008FB0200081C
:1000D000FB020008FB020008FB0200080000000011
:1000E000FB020008FB020008FB0200080000000001
:1000F000000000000000000000000000FB020008FB
:1001000000000000FB020008FB020008FB020008E0
:1001100000000000000000000000000000000000DF
:10012000FB020008FB020008FB020008FB020008BB
:10013000FB020008000000000000000000000000BA
:10014000000000000000000000000000FB020008AA
:10015000FB020008FB020008FB020008FB0200088B
:10016000FB020008FB020008000000000000000085
:10017000000000000000000000000000000000007F
:1001800000000000FB02000800000000000000006A
:10019000FB02000800F002F800F092F80AA090E8D4
:1001A000000C82448344AAF10107DA4501D100F032
:1001B00087F8AFF2090EBAE80F0013F0010F18BF6D
:1001C000FB1A43F001031847082900002829000002
:1001D000103A24BF78C878C1FAD8520724BF30C873
:1001E00030C144BF04680C60704700000023002445
:1001F00000250026103A28BF78C1FBD8520728BF37
:1002000030C148BF0B6070476E2900F07E827029B4
:1002100000F0D785662902F09683652902F0938362
:10022000672902F09083612902F08F8303681B0A1B
:1002300028BF41F08001692900F0D080642900F0D6
:10024000CD80752900F0CA806F2900F06485782977
:1002500000F0A385E92900F0FF84E42900F0FC8484
:10026000F52900F0F984EF2900F06185F82900F004
:10027000A2850368DB0928BF41F08001632900F0F3
:10028000BD87732900F0C287E32900F0CD87F329E9
:1002900000F0D287002070471FB502F04FFB00F03E
:1002A0009BFD04000020002102F032FB401C606036
:1002B0000020002102F016FBE0601FBD10B510BD4C
:1002C00001F054F81146FFF7E7FF02F0FFFA01F0E2
:1002D0007BF803B4FFF7F2FF03BC01F0BFF80000A6
:1002E0000948804709480047FEE7FEE7FEE7FEE7CA
:1002F000FEE7FEE7FEE7FEE7FEE7FEE70448054906
:10030000054A064B704700004D260008950100087D
:10031000A8000020A8060020A8020020A8020020B3
:100320007CB51D4616460C00009001D02044401EAE
:10033000074B7B442A4669460190304600F00DFC8D
:1003400005461CB10020694600F01AFC28467CBD19
:10035000550800000FB47CB50C0009AA009001D02C
:100360002044401E084B7B4469460190089800F0E9
:10037000F4FB05461CB10020694600F001FC28464C
:100380007CBC5DF814FB00002108000070B5044639
:1003900085690068C10601D5302600E02026C00727
:1003A00007D070BDD4E9012130469047206A401C37
:1003B00020626D1EF6D570BD70B504468569007863
:1003C000C00707D170BDD4E9012120209047206AE1
:1003D000401C20626D1EF6D570BD00002DE9F04175
:1003E0000646002410687529314616A510D000F085
:1003F000F8F8002802DA404213A507E031688A07BE
:1004000001D512A502E0490704D511A5012401E098
:1004100000F0F0F800210A2206F1240709E0B0FB01
:10042000F2FCB0FBF2F302FB1C00303078541846AB
:10043000491C0028F3D123462A463046BDE8F04146
:1004400000F00AB9000000002D0000002B000000A1
:10045000200000002DE9F05F894604464FF0000AB5
:10046000DFF874B1FB44C0F820A02046E16888475B
:10047000002874D0252806D0D4E901219047206AAD
:10048000401C2062F1E700265F462046E16888476D
:100490002028054607DB312D05D2781910F8200CED
:1004A00008B10643F1E7B00701D526F00406C4F809
:1004B0001CA00027C4F818A02A2D09D0284602F055
:1004C000FEF938B304EB8708303DC8F8185019E03E
:1004D00059F8041B204604EB87029161E1688847C4
:1004E000012F054618D1E069002820DA26F0200601
:1004F0001DE0D8F8180000EB800005EB4000303814
:10050000C8F818002046E1688847054602F0D7F988
:100510000028EED1012F0AD02E2D08D12046E16807
:1005200088477F1C0546022F46F02006C4DBA069E1
:10053000002803DA404246F00106A061F00701D02E
:1005400026F010066C2D0BD0682D09D04C2D39D01B
:100550006A2D35D0742D35D07A2D33D016E038E0A1
:10056000E1682F4620468847B842054609D16C2FDE
:1005700026D04FF48060E168064320468847054650
:1005800004E06C2F1AD04FF4807006430DB3A5F130
:100590004100192802D8203546F400664A4629460B
:1005A000204626604E46FFF72FFE80B101280BD073
:1005B000F61D26F0070000F1080956E74020E4E7A1
:1005C0008020D8E70020D6E706F104094DE7284649
:1005D00052E7206ABDE8F09F202500007047704771
:1005E000704709684A0501D540B27047C905FCD576
:1005F00000B2704709684A0501D5C0B27047C90505
:10060000FCD580B2704770B50C460546012A05D06E
:100610002878800600D5EA69002302E0012305E07E
:100620005B1C934202D2E05C0028F9D1A869E6186D
:10063000C01AA861286A184428622846FFF7A6FE57
:1006400004E0D5E9012114F8010B9047B442F8D336
:100650002846FFF7B1FE70BD2DE9F0470D469946DB
:100660009246044600F124080168880604D5E06932
:1006700021F01001216000E00120A84201DD471BAC
:1006800000E00027A1697A1902EB0900081AA061AD
:100690002078C00602D42046FFF778FE002608E046
:1006A000D4E901211AF806009047206A401C761C04
:1006B00020624E45F4DB2078C0060AD52046FFF7BD
:1006C00065FE06E0D4E9012130209047206A401CF5
:1006D0002062381EA7F10107F4DC07E0D4E901210C
:1006E00018F805009047206A401C2062281EA5F1DA
:1006F0000105F3DC2046FFF75FFE2078000602D5F7
:100700000220BDE8F0870120FBE711680268006A5B
:10071000530501D508700AE0D30501D5088006E02D
:10072000130603D5C217C1E9000200E008600120EA
:10073000704770472DE9FF4F0C461E464FF0FF37BC
:100740008BB0D2E90001DDF860800A908A46C1F3DF
:100750000A5505B93D46002108464FF00000BAF1A0
:10076000000F00F4400005DA00EB80004FF4400178
:1007700001EA50004FEA9059B9F1010F00DDB94686
:100780000A9850EA4A000ED044F61050A5F2FF3500
:1007900045432F14B8F1000F1ED07542291E1EDDEF
:1007A000C9F100021CE0B8F1010F4FF0000001D0C8
:1007B000302103E0F24305E02154401CB042FBDB52
:1007C00030460022002121540B99C1F80880C1E96C
:1007D00000200FB0BDE8F08FBD1B6D1CDEE74A4660
:1007E00000DA694206A800F02BFD06AB93E807008B
:1007F00003AB83E8070050460A9900F036FE8DE807
:100800000700A0F500501F3800900398002D0ADD66
:1008100042F21F014A460844002303A90390684698
:1008200001F09FF809E0A0F500504A461F38002368
:1008300003A90390684601F0A9F88DE807000004B9
:10084000000C03D04FF0FF30410800E01046B8F133
:10085000000F03D00022009215461EE0751E05D43D
:1008600000F0BEFA303262556D1EF9D5B346012252
:10087000084302D000227F1C04E02078302801D1F8
:1008800000227F1E002A099784D01DE0112D07DA6F
:1008900000F0A6FA303262556D1C50EA0102F5D123
:1008A000084302D00098C8B10EE00021681E05E0A0
:1008B000235C625C63542254401E491C8142F7DB76
:1008C000AB46A81B401E0990002004F80B000B98B3
:1008D000099AC0F80880C0E9002B7AE711264FF08A
:1008E000000857E72DE9F04F88460446D21D22F054
:1008F000070191B0D1E90001CDE90A0101F0C7FF7C
:1009000002460B98C00F01D02D2007E02068810718
:1009100001D52B2002E0202101EAC000032A099022
:1009200001D0072A05DB03464146204600F01CFCA7
:100930000BE12078800601D5E06900E00620B8F1DF
:10094000650F814606D0B8F1660F18D0B8F1670F71
:1009500070D131E00020B9F1110F009001DB1123BB
:1009600001E009F101030AAA01A90CA8FFF7E2FEC0
:10097000DDE90C70002609F10105834647E00120FE
:100980004B4600904FF000470AAA01A90CA8FFF7B8
:10099000D1FEDDE90DB00C995D46002610B909F1D4
:1009A00001000D18B9EB050003D4C0F1FF3609F1C1
:1009B0000105A5EB09002BE0B9F1010F01DA4FF0B9
:1009C00001090020B9F1110F0090484601DD112303
:1009D00000E003460AAA01A90CA8FFF7ABFEDDE977
:1009E0000C704D4600268346207800070AD4AB459C
:1009F00000DA5D4601A8012D04DD411911F8011C42
:100A0000302907D04F4502DA17F1040F04DA01202C
:100A100082460FE06D1EEEE7002F02DCED1B3E4428
:100A200003E0781CA84200DD7D1CB81B00F1010A20
:100A30004FF000472078000703D4AA4501DB4FF0B0
:100A4000FF3A0021B7F1004F0DF143088DF8431034
:100A500024D002202B23002F01DA7F422D230A21EC
:100A6000021EA0F1010000DC5FB197FBF1FC97FBD7
:100A7000F1F201FB1C7C17460CF1300C08F801CD9B
:100A8000EEE7A8F1010003702188090501D5452191
:100A900000E06521A0F1010800F8011C09980FA9E8
:100AA000A1EB0807FF1D00B10120411901EBEA701D
:100AB000A1693844081A401EA0612078C00602D4FB
:100AC0002046FFF763FC099828B1D4E9012190473B
:100AD000206A401C20622078C00622D52046FFF7FD
:100AE00055FC1EE0002E04DBB34502DD01A8805D4D
:100AF00000E03020D4E901219047206A401C2062A8
:100B0000761CAAF101005FEA000A0AD100F064F93C
:100B1000C0680168405CD4E901219047206A401C0C
:100B20002062281EA5F10105DCDC07E0D4E90121E3
:100B300018F8010B9047206A401C2062381EA7F16C
:100B40000107F3DC2046FFF737FC032011B041E634
:100B500001694A1C02610878704700B58FB0CDE981
:100B600001310021059105497944CDE90310114671
:100B70006846FFF76FFC0FB000BD0000E5FFFFFF08
:100B80000A6802F8010B0A607047D1E900239A4213
:100B900002D2531C0B601070704700002DE9FF5FFC
:100BA00015468A460446DFF8AC80F8440027D8E9A9
:100BB00000103E46CDE9001010E03AF816106A46E3
:100BC00002A800F0AFFB411C07D02178890603D5AD
:100BD000E269391891420DD80744761C20788006C6
:100BE00002D5E069B84205DDAE42E6DB3AF8160010
:100BF0000028E2D1A069C01BA0612046FFF7C6FB18
:100C0000D8E90010CDE90010002017E03AF81810DC
:100C10006A4602A800F086FBB0F1FF3F81460BD088
:100C200000250DF1080B05E0D4E901211BF80500B2
:100C300090476D1C4D45F7D308F10100B042804646
:100C4000E4DB206A384420622046FFF7B5FBBDE8AC
:100C5000FF9F0000EE1D00002DE9F0418046D21DEF
:100C600022F007020025D2E90002F52915A614D0CA
:100C7000011E72F1000106DA0023D0EB030063EBE2
:100C8000020211A608E0D8F800108B0701D50FA6C4
:100C900002E0490701D50EA601251146002408F1FE
:100CA000240704E000F09CF830323A55641C50EA06
:100CB0000102F7D12B46324621464046BDE8F041BD
:100CC000FFF7CABC000000002D0000002B00000050
:100CD0002000000030B4002100F1240408E002F0FC
:100CE0000705D208303542EA4372DB086554491CD7
:100CF00052EA0305F3D10468002310A2250707D5A3
:100D0000A40600D421B1C46901230DA2641EC461EC
:100D100030BCFFF7A1BC10B5044621461068FFF7B0
:100D200069FC02462046BDE810400023D2E7D21DF0
:100D300022F00701D1E90023CCE700000000000009
:100D400030000000F0B40D460188090502D5214CA1
:100D50007C4402E01F4C7C440E34002100F1240648
:100D600008E002F00F071209E75D42EA03721B096F
:100D70007754491C52EA0307F3D102780023120783
:100D800004D5702D06D009B1022311342246F0BCDF
:100D9000FFF762BC01231034F8E770B504460D4636
:100DA00021461068FFF726FC024629462046BDE88A
:100DB00070400023C6E7D21D22F00703D3E90023C9
:100DC000C0E70368126843F0200303600823C3618F
:100DD0000023B7E7501C0000004870476400002063
:100DE00030B5B0F10A024FEA900E71F100034EEAFD
:100DF000817EB0EB0E0061EB91014FEA101E4EEACE
:100E0000017E10EB0E0041EB11114FEA102E4EEA5D
:100E1000016E10EB0E0041EB11214FEA104E4EEA2D
:100E2000014E10EB0E0041EB1141401841F1000161
:100E30004FEAD00040EA41704FEAD10110EB800543
:100E40004FEA810444EA907444EB01046D1944EBC9
:100E50000404521BA3414FF0000348BF0A3200D5DF
:100E600030BD401C41F1000130BD00002DE9F04FC4
:100E700004460D46D21D22F0070089B0D0E9009744
:100E80004846394601F003FD0246F80F01D02D23F4
:100E900007E02068810701D52B2302E0202101EA29
:100EA000C0038DF820300BB1012000E00020032AA0
:100EB000824601D0072A04DB2946204600F054F977
:100EC0003FE12078800601D40D2500E0E569C7F3F5
:100ED0000A560D2D49DA00214FEA175B08464FF0FC
:100EE0000000002F00F4400007DA00EB80004FF410
:100EF000400100EBD07001EA60008115012901DD9D
:100F00004FF0FF3100224FEA850CBCF1180F06D3D9
:100F10001346ACF118004FF08052C24003E04FF48A
:100F2000801323FA0CF30CF10C0CBCF1200F04D34A
:100F3000ACF1200C09FA0CF001E007FA0CF00029E2
:100F40004FF0004801DD18B90FE00ED140450CD339
:100F500019EB02095F4121B9404502D19F4329EABB
:100F60000209BBEB175F00D0761C2088000502D574
:100F70007B48784402E07A487844193808AA30233C
:100F800002F80A30037C0AF10101002E0AF1020A7C
:100F900053546A4602DC4FF0300101E04FF031015A
:100FA0004FF001088DF8001002D0A6F2FF3603E0E2
:100FB00059EA470100D06B4E002D02DC2178090769
:100FC00004D54FF002082E218DF80110C4460021EF
:100FD0000BE0C7F303433F01C35C491C6D1E02F8DD
:100FE0000830052908F1010801DA002DF1DC0021A3
:100FF0000CE000EB1973491C1B786D1E082902F8E0
:1010000008304FEA091908F1010801DA002DF0DC77
:1010100021688B0602D516E0A8F10108E04505DD40
:1010200002EB080313F8013C302BF5D0B8F1000FA8
:1010300009DD02EB080313F8013C2E2B03D109074D
:1010400001D4A8F10108002D05DD3E2102F80810A9
:101050006D1E08F10108407C002E02F8080008F11E
:10106000010804DA2D20764202F8080002E02B2065
:1010700002F808000A214FF47A70864208F101084C
:101080000BDB96FBF0F3303302F8083096FBF0F3FD
:1010900008F1010800FB136601E0642E0CDB6420FC
:1010A00096FBF0F3303302F8083096FBF0F308F1CA
:1010B000010800FB136601E00A2E06DB96FBF1F047
:1010C000303002F8080008F1010896FBF1F001FB4E
:1010D0001060303002F80800A16908F1010808EB3F
:1010E000050202EB0A00081AA0612078C00602D4AB
:1010F0002046FFF74BF9216A08AE01EB0A00206297
:1011000004E0D4E9012116F8010B9047BAF1010A75
:10111000F7D22078C00602D52046FFF737F96E4691
:1011200009E016F8010B3E280FD0D4E901219047C1
:10113000206A401C2062B8F10108F2D22046FFF775
:101140003BF909B00320BDE8F08F206A28442062F3
:1011500003E0D4E90121302090476D1EEBD3F8E77E
:10116000691A000002FCFFFF2DE9F0411F4604460A
:1011700003260168072A01F4006004DB08B116A504
:1011800005E016A503E008B115A500E015A521F0BE
:1011900010002060A069C01EA0610FB1401EA061B8
:1011A0002046FFF7F3F84FB1D4E9012138469047C4
:1011B000206A401C2062C01C206206E0206AFAE718
:1011C000D4E9012115F8010B9047761EF8D220468C
:1011D000FFF7F2F8BDE8F0814E414E006E616E00FF
:1011E000494E4600696E660010B5436913B1AFF30E
:1011F000008001E0FFF707FA012010BD127800F12E
:1012000024010A7000224A700122EDE711684FF0B4
:10121000FF32E9E710B5436913B1AFF3008001E095
:10122000FFF7BCFC012010BD128800F1240182846C
:101230000022C2840122EDE711684FF0FF32E9E796
:101240002DE9F047814616468AB0354878440DC8E6
:101250008DE80D0032487844801C03AC0DC884E84A
:101260000D0041F69B300844372190FBF1F290FBD2
:10127000F1F5A5F1800501FB12041B3C02D5644287
:10128000012000E00020DFF898A080460027FA4403
:10129000AAF1BE0A0EE0E0070AD03246684607EB24
:1012A000470101230AEB810100F070FB8DE8070084
:1012B00064107F1C002CEED1194F7F44AE3F19E023
:1012C000E80715D007EB04100DF1180A90E80E009E
:1012D0008AE80E00C068F04201D1981908903246A1
:1012E000012306A903A800F051FB03AB83E8070024
:1012F0006D10641C002DE3D14FF0010332466946A6
:10130000B8F1000F03A802D000F02BFB01E000F0C1
:101310003DFBC9E90001C9F808200AB0BDE8F08723
:101320002018000070B516460C46054600F044F83B
:10133000036893F80101012806D0FF2C0FD8185D2F
:1013400068B101202C7070BDD3F8070132462146E8
:1013500003F2071303442846BDE8704018474FF0D6
:10136000FF3070BD00487047440000207546FFF70D
:10137000F9FFAE4605006946534620F00700854652
:1013800018B020B5FEF7BAFFBDE820404FF00006C8
:101390004FF000074FF000084FF0000B21F007015D
:1013A000AC46ACE8C009ACE8C009ACE8C009ACE8A0
:1013B000C0098D467047000010B5FFF70DFD001DF8
:1013C00010BD00BF4D15000010B50446AFF30080FE
:1013D0002046BDE81040FEF77CBF00004FF0013C06
:1013E00050F8042B51F8043B9A4221D1A2EB0C0394
:1013F000934313EACC1317D150F8042B51F8043B54
:101400009A4215D1A2EB0C03934313EACC130BD1F0
:1014100050F8042B51F8043B9A4209D1A2EB0C037B
:10142000934313EACC13DBD04FF00000704700BFAA
:10143000D01A01BAB1FA81F101F0180122FA01F0D3
:10144000CB40C1F12001DBB2C0B2C01A2CFA01F3CB
:10145000D11A914311EAC311E6D17047014918200E
:10146000ABBEFEE72600020070475FEA400C08BFF3
:1014700091F0000F4FEA8C234FEAC12243EA515109
:101480004FEA1C5018BF00F5F0404FEA300018BF7B
:1014900041F000415FEA6C5C00F02980BCF1FF3F45
:1014A00008BF40F080407047130C06BF12044FF095
:1014B000100C4FF0000C130E04BF12020CF1080CBC
:1014C000130F04BF12010CF1040C930F04BF920020
:1014D0000CF1020CD30F04BF52000CF1010C1146A9
:1014E0004FF00002A0F11F00A0EB0C00704711F0BC
:1014F000004F08BF704731F000413FF4D5AF0B0CEF
:1015000006BF09044FF0100C4FF0000C0B0E04BF87
:1015100009020CF1080C0B0F04BF09010CF1040CBB
:101520008B0F04BF89000CF1020CCB0F04BF4900E4
:101530000CF1010CCCF12003A0EB0C0022FA03F318
:1015400002FA0CF241EA030100F10100704720F0B9
:101550007F4C80EA030023F07F47ACEB070303F5E1
:101560007C5300F0004003F1FF032DE980494FEA6E
:10157000154B09B44FEA144325EA0B4E24EA0348FD
:101580000FF2042606EB132749083E785FEA320281
:1015900003FB0667C7F5000707FB06F64FEA54375B
:1015A0004FEAD64606F1020607FB066CCCF1005C5A
:1015B0004FEA1C472CEA074C07FB06F40CFB06F528
:1015C00004EB15464FEA961634BF00204FF000405A
:1015D0004FEAD13706FB07FC4FEA1C4C0CFB0BF71C
:1015E000D21B03FB0CF761EB07010CFB0EF7B0EB12
:1015F000074072EB17420CFB08F734BFA2EB07421F
:10160000B2EB074261EB17414FEA0C444FEA9107F6
:1016100006FB07FC4FEA1C4C0CFB0BF7B0EBC7407A
:1016200072EB573203FB0CF734BFA2EBC742B2EBAD
:10163000C74261EB57310CFB0EF7B0EBC70072EB02
:1016400057720CFB08F734BFA2EBC702B2EBC7021C
:1016500061EB5771039F4FEA816141EA921104EBFC
:10166000CC044FEAD1374FEA826206FB07FC42EA1C
:1016700090124FEA80604FEA1C4C0CFB0BF7D21B18
:1016800003FB0CF761EB07010CFB0EF7B0EB074017
:1016900072EB17420CFB08F734BFA2EB0742B2EB28
:1016A000074261EB17414FEA8C554FEA910704EB73
:1016B0009C2406FB07FC4FEA1C4C0CFB0BF7B0EB21
:1016C000C74072EB573203FB0CF734BFA2EBC742A3
:1016D000B2EBC74261EB57310CFB0EF7B0EBC70022
:1016E00072EB57720CFB08F734BFA2EBC702B2EBE8
:1016F000C70261EB577115EB4C254FEA816141EA56
:1017000092114FEA82624FEAD13742EA901206FB09
:1017100007FC44F100044FEA80604FEA1C4C0CFBCC
:101720000BF7D21B03FB0CF761EB07010CFB0EF769
:10173000B0EB074072EB17420CFB08F734BFA2EB8B
:101740000742B2EB074261EB174115EB1C154FEA5C
:10175000813141EA92414FEA823242EA90424FEAB5
:1017600080304FEA0C7644F1000448EA03434EEA25
:101770000B484FF0000EB2EB080C71EB030724BFCF
:10178000624639464EEB0E0E4FF0000B00185241E8
:1017900049414BEB0B0BB2EB080C71EB03077BF1F0
:1017A000000B24BF624639464EEB0E0E4FF0000B85
:1017B0000018524149414BEB0B0BB2EB080C71EB9B
:1017C00003077BF1000B24BF624639464EEB0E0E39
:1017D00051EA020718BF46F0010616EB0E7655F1E6
:1017E000000254F1000103D5BDE88901BDE800887D
:1017F000BDE88901BDE80048B619524141EB01013D
:10180000A3F10103704780807F7E7D7C7B7A7978AD
:10181000777676757473727171706F6E6E6D6C6CB5
:101820006B6A6A6968686766666564646363626157
:101830006160605F5F5E5E5D5D5C5C5B5B5A5A59D8
:101840005958585757565655555554545353525244
:101850005251515050504F4F4F4E4E4D4D4D4C4C9C
:101860004C4B4B4B4A4A4A494949484848474747E5
:101870004746464645454544444444434343434222
:10188000424242414141002B9C4630D477002BD04C
:101890001CB54FEA370703B44FF010004FF01001AA
:1018A000BAF1000F06D0BCF1000FDCBF40F0080019
:1018B00040F008014FF000000FBCBDE810400BF1F4
:1018C000010BBBF1010F08BF5FEA170722BF12F13E
:1018D000010211F101014FF0004143F1000300F05A
:1018E000004043EA00007047F9D35708D0E746EAC2
:1018F000064613F1400F4FEA16461FDD13F1200F85
:10190000DFBF16430A46002120335B42BED0C3F13D
:10191000200746EA064602FA07F74FEA164646EA65
:101920000706C3F1200722FA03F201FA07F721FAAA
:1019300003F14FF0000342EA0702A7E746EA020676
:1019400046EA06464FEA164646EA0106BCBF46EAA4
:101950000646360C4FF000034FF000024FF0000136
:1019600094E72DE9804C9A46934670B491E838008C
:1019700007C831EA400C48BF34EA430C03D5FFF7EF
:10198000E6FDFFF780FFF0BCBDE8008C2DE9804C40
:101990009A46934670B491E8380007C810F0804F1B
:1019A00008BF13F0804F03D100F005F8FFF76BFF7D
:1019B000F0BCBDE8008C20F07F4780EA030023F0F4
:1019C0007F4C07EB0C03A3F57C5300F00040A3F120
:1019D000FE0392F0000F00F0B38095F0000F00F0CE
:1019E00077802DE901494FEA11404FEA144621EA78
:1019F000004800FB06FC24EA064708FB06F607FB46
:101A000008F800FB07F718EB06484CEB164C4FEABA
:101A1000124B18EB07484FEA15464CEB174022EAE9
:101A20000B4E0BFB06FC25EA06470EFB06F607FBF2
:101A30000EFE0BFB07F71EEB064E4CEB164C4FF061
:101A400000061EEB074E4CEB174B18EB0B0840F152
:101A5000000018EB0E0B58EB000840F100008F1A45
:101A60004FF000013CBFC943661B14BFB5EB040C2B
:101A700000213CBFC943F61B4FEA17444EEA8E0EC5
:101A800027EA04454FEA1C4704FB07622CEA074C8F
:101A900005FB07F70CFB05F604FB0CFC16EB0746F1
:101AA00042EB174216EB0C4642EB1C421BEB0606C0
:101AB00058EB0202414146EA9E0601D5BDE8018984
:101AC000B619524141EB0101A3F10103BDE80189BF
:101AD0004FEA14454FEA114724EA054621EA074C2C
:101AE00005FB07F406FB07F70CFB06F105FB0CFCF6
:101AF00011EB074144EB17444FEA124711EB0C413D
:101B000044EB1C4422EA074C05FB07F206FB07F7EF
:101B10000CFB06F605FB0CFC16EB074642EB1742E6
:101B200016EB0C4642EB1C456A1854F1000148BF05
:101B30007047B619524141EB0101A3F1010370470F
:101B400095F0000F37D04FEA11424FEA144721EACF
:101B5000024624EA074C02FB07F106FB07F70CFBE1
:101B600006F402FB0CFC14EB074441EB17414FEA6F
:101B7000154714EB0C4441EB1C4125EA074C02FBD2
:101B800007F506FB07F70CFB06F602FB0CFC16EB51
:101B9000074645EB174516EB0C4645EB1C42121960
:101BA00051F1000148BF7047B619524141EB0101A4
:101BB000A3F1010370474FEA14454FEA114724EAA5
:101BC000054621EA074C05FB07F106FB07F70CFB6E
:101BD00006F24FF0000605FB0CFC12EB074241EB4E
:101BE000174112EB0C4251EB1C4148BF7047921851
:101BF00041EB0101A3F10103704700BFFEE770470D
:101C00000D484FF0E021096941F004014FF0E02256
:101C100011610A49B0FBF1F1094A117011460978C6
:101C200001EB4102C2EBC1114FF6FF7202EAC101A2
:101C3000044A11807047000000BD010540420F00BA
:101C4000240000202600002010B50346002404E0F4
:101C50004FF47A7000F004F8641C9C42F8D310BD75
:101C6000002101E000BF491CB1EBC00FFAD370475F
:101C700030B10749096841F48061054A116005E007
:101C80000349096821F48061014A1160704700002E
:101C9000003C024030B10749096841F40071054A2F
:101CA000116005E00349096821F40071014A1160DF
:101CB00070470000003C024030B10749096841F418
:101CC0008071054A116005E00349096821F48071BB
:101CD000014A116070470000003C0240014A107048
:101CE00070470000003C0240F0B50A460021002386
:101CF000002400BF3DE0012505FA01F3156805EA5F
:101D000003049C4234D105684F000326BE40B5430E
:101D1000056015794E00B5400668354305601579B4
:101D2000012D02D01579022D16D185684F000326AA
:101D3000BE40B543856055794E00B5408668354351
:101D40008560456801268E40B543456045689679B3
:101D50008E40B6B235434560C5684F000326BE408D
:101D6000B543C560D5794E00B540C6683543C560FA
:101D7000491C1029BFD3F0BDF0B5002300244D0746
:101D8000ED0E02FA05F3CE1000F1200555F82650AD
:101D90004E07F70E0F26BE40B543CF1000F12006C8
:101DA00046F82750CE1000F1200555F8265045EA98
:101DB0000304CE1000F1200545F82640F0BD8161F6
:101DC000704700BFFEE700002DE9F04FAFB000F014
:101DD00003F910B92FB0BDE8F08F072000F008F923
:101DE0000446062000F004F90546052000F000F93D
:101DF0000646042000F0FCF80746032000F0F8F83F
:101E00008046022000F0F4F88146012000F0F0F84E
:101E10008246002000F0ECF883465B46084AA02189
:101E200007A8CDE900A9CDE90287CDE904650694AC
:101E3000FEF790FA07A9012000F00BFD00BFC9E7EB
:101E4000882A000810B509A1012000F002FD114800
:101E500011A10268012000F0C5FC15A1012000F0CD
:101E6000F8FC1AA1012000F0F4FC10BD0D0A3D3D64
:101E70003D2047592D38372053656E736F72204DC2
:101E80006F6E69746F72202B2050504D203D3D3D88
:101E90000D0A00000000002053797374656D206303
:101EA0006C6F636B3A20256C7520487A0D0A000030
:101EB000554152543A205553415254322040313109
:101EC000353230306270730D0A00000050504D20E2
:101ED000496E7075743A2054494D325F4348312041
:101EE000405041300D0A000000BFFEE71CB5012143
:101EF000022000F04FF901208DF804004FF44070EB
:101F0000009001208DF8060002208DF8050069463A
:101F10000448FFF7E9FE4FF440710248FFF74FFF16
:101F20001CBD0000000402400146022901DB002024
:101F30007047C1EBC100024A02EB8000F8E70000E5
:101F40005029000870B586B006460D463046FFF7AA
:101F5000EBFF04460CB906B070BD207A20B1012118
:101F6000606800F037F903E00121606800F022F9B1
:101F70000121206900F00EF9A08AE18A084304904B
:101F800002208DF8140000208DF8160002208DF834
:101F9000150001208DF8170004A9E068FFF7A4FEE2
:101FA000A27E217EE068FFF7E7FEA27E617EE06808
:101FB000FFF7E2FE684600F05CFC00950C20ADF8EF
:101FC0000A006946206800F0A3FB0121206800F0A8
:101FD00086FB00BFBFE770470448007820B10020AF
:101FE00002490870012070470020FCE73000002003
:101FF0000146082902DB40F2DC507047014830F806
:102000001100FAE73400002010B53548006840F0B0
:1020100001003349086032481038006840F0010080
:102020002F49103908602F48006820F003002D491F
:1020300008600846006840F0020008600846006A30
:1020400020F00F0008620846006A40F001000862B4
:102050005320490308854FF0FF30C8620846008BC3
:1020600020F0030008830846008B40F0010008833D
:102070000846008C20F0020008840846008C20F0FE
:10208000080008840846008C40F001000884002005
:1020900008820846808940F002008881084600884E
:1020A00040F0010008801C200121002807DA0A07FF
:1020B000140E0D4A00F00F031B1FD45403E00A074F
:1020C000130E0A4A135400BF1C200121814042090B
:1020D000920002F1E022C2F8001100BF10BD000022
:1020E000403802400000024018ED00E000E400E04B
:1020F00010B54FF08040008A00F0020000283ED06A
:102100004FF08042128A22F002024FF080431A827E
:102110001A46506B1A4A1268904203D3184A126842
:10212000821A04E0164A1268C2F1FF3202441146D4
:10213000134A106040F6B832914203D90022114B85
:102140001A701BE00F4A1278082A0BDAB1F5487FA3
:1021500008D340F69802914204D80B4B094C2478DE
:1021600023F81410074A1278521C064B1A701A46AC
:102170001278082A02DB0122044B1A7000BF10BD3E
:102180002C00002028000020340000203000002017
:102190007047000029B1064A12680243044B1A60D6
:1021A00004E0034A12688243014B1A607047000042
:1021B0003038024029B1064A12680243044B1A60C3
:1021C00004E0034A12688243014B1A607047000022
:1021D0004038024029B1064A12680243044B1A6093
:1021E00004E0034A12688243014B1A607047000002
:1021F000443802401248006840F00100104908606D
:1022000000200F49083108600D4800680D4908405A
:102210000B4908600C48091D08600C4808498431C6
:1022200008600748006820F4802005490860002005
:1022300003490C31086002498C3108607047000086
:1022400000380240FFFFF6EA103000240030002082
:10225000F0B5002100220024022500260223324F7F
:102260003F6807F00C0121B1042905D0082937D1B6
:1022700005E02E4F076036E02D4F076033E02A4F10
:102280003F1F3F68C7F38056274F3F1F3F6807F047
:102290003F036EB1264FB7FBF3F7DFF88CC0ACF10C
:1022A000040CDCF800C0CCF3881C07FB0CF40CE039
:1022B0001E4FB7FBF3F7DFF870C0ACF1040CDCF88D
:1022C00000C0CCF3881C07FB0CF4174F3F1F3F687E
:1022D000C7F301477F1C7D00B4FBF5F7076002E000
:1022E000124F076000BF00BF0F4F3F6807F0F001BB
:1022F0000909104F7A5C0768D74047600A4F3F686A
:1023000007F4E051890A0B4F7A5C4768D740876031
:10231000054F3F6807F46041490B064F7A5C4768F8
:10232000D740C760F0BD0000083802400024F40028
:1023300040787D011400002010B5014600220023E2
:1023400000204A11012A02D10A4C236808E0022A1F
:1023500003D1084C7034236802E0064C74342368BF
:1023600001F01F02012494401C400CB1012000E048
:10237000002010BD003802400248006800F00C0048
:10238000704700000838024001460020034A1068E8
:1023900020F0F00008431060704700000838024049
:1023A00001490860704700000000474201460020D4
:1023B000034A106820F4E0500843106070470000A2
:1023C0000838024001460020034A106820F46040AB
:1023D00040EAC100106070470838024001490866B1
:1023E000704700000000474270B5049C41EA821526
:1023F0000126C6EB530645EA0645054345EA046552
:10240000014E356070BD00000438024001460020D6
:10241000034A106820F00300084310607047000072
:1024200008380240704700000CB500200190009071
:102430003348006840F480303149086000BF3048BC
:10244000006800F4003000900198401C0190009852
:1024500018B90198B0F5A04FF1D12948006800F4EF
:10246000003010B10120009001E0002000900098A1
:10247000012844D122484030006840F08050204973
:10248000403108601F48006840F440401D49086022
:102490001B48083000681A4908310860084600687F
:1024A00008600846006840F4805008601648091F1C
:1024B0000860081F006840F08070091F086000BFB6
:1024C0000F48006800F000700028F9D040F2027058
:1024D0000E4908600A480830006820F003000849E7
:1024E000083108600846006840F00200086000BF3C
:1024F00003480830006800F00C000828F8D10CBD33
:10250000003802400070004019544107003C02406E
:10251000704708B5FFF76EFE0120FFF741FF00BFCF
:102520002120FFF709FF0028FAD0072002235422B8
:10253000082100900020FFF757FF0120FFF74EFF12
:1025400000BF3920FFF7F8FE0028FAD00220FFF77D
:10255000C5FB0120FFF7B0FB0120FFF79BFB01202B
:10256000FFF786FB0020FFF70FFF4FF48050FFF7C7
:102570001DFF0020FFF726FF0220FFF747FF00BFE7
:10258000FFF7FAFE0828FBD108BD000070B5002057
:102590000022022300240221274D2D6805F00C00A3
:1025A00020B1042806D0082834D107E0234D244E5A
:1025B000356033E0234D224E35602FE01E4D2D1F38
:1025C0002D68C5F380541C4D2D1F2D6805F03F016B
:1025D00054B11C4DB5FBF1F5174E361F3668C6F3E6
:1025E000881605FB06F209E0144DB5FBF1F5124E15
:1025F000361F3668C6F3881605FB06F20E4D2D1FF2
:102600002D68C5F301456D1C6B00B2FBF3F50C4E54
:10261000356003E0094D0A4E356000BF00BF064D2E
:102620002D68C5F30315084E705D054D2D68C54036
:10263000034E356070BD0000083802400024F400ED
:102640000000002040787D010400002010B51548EE
:10265000006840F47000134908601348006840F0B7
:1026600001001149086000200F49083108600E4838
:1026700000680E4908400C4908600D48091D0860B3
:10268000081F006820F48020091F08600020064908
:102690000C310860FFF7C8FE4FF000600149803937
:1026A000086010BD88ED00E000380240FFFFF6FE34
:1026B0001030002410B5FFF72CFFFFF767FFFFF77E
:1026C0009FFAFFF713FC4FF4E1310120FFF73AFCCA
:1026D000FFF79AFC10BD00B5FFF70AFD00BD21B160
:1026E000828942F40052828104E082894DF6FF73B0
:1026F0001A408281704702460020B1F5007F00D168
:1027000000BF13880B400BB1012000E00020704790
:102710002DE9FF4705460E460024A14600BFA0460E
:10272000B08900B100BF2C8A24F44054F0880443DF
:102730002C82AC8941F20C608443B0883189084313
:10274000718908430443AC81AC8A24F44074B08995
:102750000443AC826846FFF77BFD2048854202D0E7
:102760001F48854202D1DDF80C9001E0DDF80890A9
:10277000A88900F4004040B109EBC90000EB091042
:1027800031684900B0FBF1F707E009EBC90000EB45
:10279000091031688900B0FBF1F76420B7FBF0F055
:1027A00004012009642101FB1078A88900F400408D
:1027B00040B1322000EBC800B0FBF1F000F00700A0
:1027C000044308E0322000EB08106421B0FBF1F074
:1027D00000F00F0004432C81BDE8FF87001001408A
:1027E000001401400FB410B5A2B0044626A8019011
:1027F000802102A8019B259AFDF792FD00200190FF
:1028000002A9204600F025F822B010BC5DF814FBA8
:1028100070B505460E462846FFF786FB044604B908
:1028200070BD00BF80212068FFF765FF0028F9D048
:102830003146206800F009F800BF40212068FFF70A
:102840005AFF0028F9D000BFEAE7C1F308028280EE
:10285000704770B505460C4604B970BD04E014F825
:10286000011B2846FFF7D4FF20780028F7D100BFCE
:10287000F3E74FF41651016000218180C18001818E
:102880000C21418100218181704700BFFEE703B424
:1028900001984100009850EAC12018BF04204A0D59
:1028A00018BF40F0010040F2FF72B2EB515F08BF69
:1028B00040F00200012808BF052002B07047303800
:1028C0000A2801D20120704700207047FFF7F2FE6E
:1028D000FFF7B8FA04E0FFF777FAC820FFF7B4F97A
:1028E000F9E7000010B500290AD00878002807D0C1
:1028F00005487844FEF772FD002801D0002010BD85
:102900000248784410BD0000FE010000F6010000FE
:1029100010B500290AD00878002807D00548784467
:10292000FEF75CFD002801D0002010BD024878446D
:1029300010BD0000EE010000E60100004FF0407005
:10294000E1EE100A7047FDF7CDBFFEF78FBA000029
:1029500000100140100000000100000000000240D3
:102960000100000000020004090A070000440040C2
:102970000000020000000000000002400100000012
:102980000400080002030700040000080000000023
:102990000000000200010000100000000000000024
:1029A0000000000030313233343536373839414297
:1029B00043444546403058003031323334353637A1
:1029C0003839616263646566403078003031323393
:1029D0003435363738396162636465667870003043
:1029E000313233343536373839414243444546581D
:1029F0005000000002400000000000A000000000A5
:102A000005400000000000C8000000000C4000006D
:102A10000000409C00000000194000000020BCBEE7
:102A20000000000034400000BFC91B8E00000004FD
:102A3000B5400000504BCFD06607E2CF0100000048
:102A40006C4100003E8251AADFEEA7340100000075
:102A5000D9420000DCB5A0E23A301F97FFFFFFFF2C
:102A6000B4450000FD25A0C8E9A3C14FFFFFFFFF4B
:102A7000FF3F00000000008000000000FF3F00005A
:102A8000000000800000000050504D3A20434831C3
:102A90003D253464204348323D2534642043483387
:102AA0003D253464204348343D2534642043483573
:102AB0003D253464204348363D253464204348375F
:102AC0003D253464204348383D2534640D0A000018
:102AD0001C2C00080000002034000000D001000879
:102AE000502C00083400002074060000EC0100089F
:102AF0001C00000043000000F8FFFFFF0C00000076
:102B00000E0000000F0000002E0000001001000069
:102B100043000000F8FFFFFF0040404040404040BD
:102B200040404141414141404040404040404040A0
:102B30004040404040404040400502020202020244
:102B40000202020202020202022020202020202093
:102B500020202002020202020202909090909090A7
:102B60001010101010101010101010101010101065
:102B700010101010020202020202888888888888D9
:102B800008080808080808080808080808080808C5
:102B900008080808020202024000000000000000CD
:102BA0000000000000000000000000000000000025
:102BB0000000000000000000000000000000000015
:102BC0000000000000000000000000000000000005
:102BD00000000000000000000000000000000000F5
:102BE00000000000000000000000000000000000E5
:102BF00000000000000000000000000000000000D5
:102C000000000000000000000000000000000000C4
:102C100000000000000000000000000000BD0105F1
:102C2000000000000000000001020304060708097C
:102C30000000000001020304010203040607080962
:102C40000000000000000000000000000000000084
:040000050800019559
:00000001FF
