:020000040800F2
:10000000A80600203D0200087F0900083F080008FC
:10001000CD0800087B060008271400080000000037
:100020000000000000000000000000008D0E00082D
:100030007F06000800000000F90B0008790F000897
:10004000570200085702000857020008570200082C
:10005000570200085702000857020008570200081C
:10006000570200085702000857020008570200080C
:1000700057020008570200085702000857020008FC
:10008000570200085702000857020008000000004D
:1000900000000000000000000000000057020008FF
:1000A00057020008570200085702000857020008CC
:1000B0003B110008570200085702000857020008C9
:1000C00057020008570200085702000857020008AC
:1000D00057020008570200085702000800000000FD
:1000E00057020008570200085702000800000000ED
:1000F000000000000000000000000000570200089F
:1001000000000000570200085702000857020008CC
:1001100000000000000000000000000000000000DF
:10012000570200085702000857020008570200084B
:10013000570200080000000000000000000000005E
:10014000000000000000000000000000570200084E
:10015000570200085702000857020008570200081B
:1001600057020008570200080000000000000000CD
:10017000000000000000000000000000000000007F
:10018000000000005702000800000000000000000E
:100190005702000800F002F800F041F80AA090E8C9
:1001A000000C82448344AAF10107DA4501D100F032
:1001B00036F8AFF2090EBAE80F0013F0010F18BFBE
:1001C000FB1A43F0010318472413000044130000F6
:1001D000103A24BF78C878C1FAD8520724BF30C873
:1001E00030C144BF04680C60704700000023002445
:1001F00000250026103A28BF78C1FBD8520728BF37
:1002000030C148BF0B607047642900F07B8000203C
:1002100070471FB501F03EF91FBD10B510BD00F0CD
:10022000F7F91146FFF7F5FF01F006F900F015FAAE
:1002300003B4FFF7F2FF03BC00F018FA0948804747
:1002400009480047FEE7FEE7FEE7FEE7FEE7FEE7B8
:10025000FEE7FEE7FEE7FEE704480549054A064BD0
:1002600070470000B510000895010008A8000020A4
:10027000A8060020A8020020A80200200FB47CB528
:100280000C0009AA009001D02044401E084B7B447A
:1002900069460190089800F096F905461CB10020C7
:1002A000694600F0A3F928467CBC5DF814FB000009
:1002B0006503000070B5044685690068C10601D574
:1002C000302600E02026C00707D070BDD4E9012108
:1002D00030469047206A401C20626D1EF6D570BDE6
:1002E00070B5044685690078C00707D170BDD4E9B0
:1002F000012120209047206A401C20626D1EF6D507
:1003000070BD00002DE9F0410646002410687529F3
:10031000314616A510D0AFF30080002802DA404223
:1003200013A507E031688A0701D512A502E0490745
:1003300004D511A5012401E0AFF3008000210A22B9
:1003400006F1240709E0B0FBF2FCB0FBF2F302FB7C
:100350001C00303078541846491C0028F3D123463D
:100360002A463046BDE8F04100F0CFB8000000005A
:100370002D0000002B000000200000002DE9F05FA0
:10038000894604464FF0000ADFF874B1FB44C0F818
:1003900020A02046E1688847002874D0252806D090
:1003A000D4E901219047206A401C2062F1E7002631
:1003B0005F462046E16888472028054607DB312D47
:1003C00005D2781910F8200C08B10643F1E7B00700
:1003D00001D526F00406C4F81CA00027C4F818A014
:1003E0002A2D09D0284601F020F838B304EB8708FD
:1003F000303DC8F8185019E059F8041B204604EBAA
:1004000087029161E1688847012F054618D1E069AC
:10041000002820DA26F020061DE0D8F8180000EBAE
:10042000800005EB40003038C8F818002046E1682D
:100430008847054600F0F9FF0028EED1012F0AD0C9
:100440002E2D08D12046E16888477F1C0546022FE3
:1004500046F02006C4DBA069002803DA404246F0DB
:100460000106A061F00701D026F010066C2D0BD01C
:10047000682D09D04C2D39D06A2D35D0742D35D04A
:100480007A2D33D016E038E0E1682F4620468847C1
:10049000B842054609D16C2F26D04FF48060E16840
:1004A000064320468847054604E06C2F1AD04FF4D7
:1004B000807006430DB3A5F14100192802D82035FC
:1004C00046F400664A462946204626604E46FFF717
:1004D0009BFE80B101280BD0F61D26F0070000F12D
:1004E000080956E74020E4E78020D8E70020D6E757
:1004F00006F104094DE7284652E7206ABDE8F09F5F
:10050000481100007047704770472DE9F0470D46CD
:1005100099469246044600F124080168880604D5ED
:10052000E06921F01001216000E00120A84201DD16
:10053000471B00E00027A1697A1902EB0900081A9D
:10054000A0612078C00602D42046FFF7B3FE002643
:1005500008E0D4E901211AF806009047206A401CFF
:10056000761C20624E45F4DB2078C0060AD5204672
:10057000FFF7A0FE06E0D4E9012130209047206A71
:10058000401C2062381EA7F10107F4DC07E0D4E923
:10059000012118F805009047206A401C2062281E9F
:1005A000A5F10105F3DC2046FFF79AFE207800064E
:1005B00002D50220BDE8F0870120FBE701694A1C53
:1005C00002610878704700B58FB0CDE90131002194
:1005D000059105497944CDE9031011466846FFF7B6
:1005E000CDFE0FB000BD0000E5FFFFFF0A6802F876
:1005F000010B0A607047D1E900239A4202D2531CD2
:100600000B601070704700000048704744000020E5
:100610007546FFF7F9FFAE4605006946534620F0E0
:100620000700854618B020B5FFF716FEBDE820404C
:100630004FF000064FF000074FF000084FF0000B9E
:1006400021F00701AC46ACE8C009ACE8C009ACE851
:10065000C009ACE8C0098D46704710B50446AFF339
:1006600000802046BDE81040FFF7E2BD0149182098
:10067000ABBEFEE726000200704700BFFEE77047F2
:100680000D484FF0E021096941F004014FF0E022EC
:1006900011610A49B0FBF1F1094A1170114609785C
:1006A00001EB4102C2EBC1114FF6FF7202EAC10138
:1006B000044A11807047000000BD010540420F0050
:1006C000240000202600002010B50346002404E08A
:1006D0004FF47A7000F004F8641C9C42F8D310BD0B
:1006E000002101E000BF491CB1EBC00FFAD37047F5
:1006F00030B10749096841F48061054A116005E09D
:100700000349096821F48061014A116070470000C3
:10071000003C024030B10749096841F40071054AC4
:10072000116005E00349096821F40071014A116074
:1007300070470000003C024030B10749096841F4AD
:100740008071054A116005E00349096821F4807150
:10075000014A116070470000003C0240014A1070DD
:1007600070470000003C0240F0B50A46002100231B
:10077000002400BF3DE0012505FA01F3156805EAF4
:1007800003049C4234D105684F000326BE40B543A4
:10079000056015794E00B54006683543056015794A
:1007A000012D02D01579022D16D185684F00032640
:1007B000BE40B543856055794E00B54086683543E7
:1007C0008560456801268E40B54345604568967949
:1007D0008E40B6B235434560C5684F000326BE4023
:1007E000B543C560D5794E00B540C6683543C56090
:1007F000491C1029BFD3F0BDF0B5002300244D07DC
:10080000ED0E02FA05F3CE1000F1200555F8265042
:100810004E07F70E0F26BE40B543CF1000F120065D
:1008200046F82750CE1000F1200555F8265045EA2D
:100830000304CE1000F1200545F82640F0BD00BFAE
:10084000FEE70000F0B5A3B0032000F0A5F80446D1
:10085000022000F0A1F80546012000F09DF80646B0
:10086000002000F099F807463B4607A2802103A824
:10087000CDE900650294FFF701FD03A9012000F016
:10088000B6FD23B0F0BD00004348313D253464205F
:100890004348323D253464204348333D25346420A9
:1008A0004348343D2534640D0A000000014640F2FF
:1008B000DE30814202DA4FF47A707047B1F5FA6F98
:1008C00002DD4FF4FA60F8E70846F6E700BFFEE7FE
:1008D0000146022901DB00207047C1EBC100024A3A
:1008E00002EB8000F8E70000A014000870B586B0A5
:1008F00006460D463046FFF7EBFF04460CB906B03E
:1009000070BD207A20B10121606800F097F903E002
:100910000121606800F082F90121206900F06EF980
:10092000A08AE18A0843049002208DF81400002078
:100930008DF8160002208DF8150001208DF81700A3
:1009400004A9E068FFF710FFA27E217EE068FFF7B0
:1009500053FFA27E617EE068FFF74EFF684600F01D
:1009600056FD00950C20ADF80A006946206800F09D
:10097000B3FC0121206800F095FC00BFBFE7704781
:100980000448007820B10020024908700120704717
:100990000020FCE7300000200146082902DB40F27D
:1009A000DC507047014830F81100FAE734000020AD
:1009B00010B53548006840F00100334908603248FE
:1009C0001038006840F001002F49103908602F48A6
:1009D000006820F003002D4908600846006840F0D8
:1009E000020008600846006A20F00F00086208460E
:1009F000006A40F0010008625320490308854FF067
:100A0000FF30C8620846008B20F0030008830846C8
:100A1000008B40F0010008830846008C20F00200A3
:100A200008840846008C20F0080008840846008CE2
:100A300040F001000884002008820846808940F0C8
:100A4000020088810846008840F0010008801C20D0
:100A50000121002807DA0A07140E0D4A00F00F03DF
:100A60001B1FD45403E00A07130E0A4A135400BF95
:100A70001C20012181404209920002F1E022C2F8CB
:100A8000001100BF10BD00004038024000000240CD
:100A900018ED00E000E400E010B54FF08040008A5F
:100AA00000F0020000283ED04FF08042128A22F06F
:100AB00002024FF080431A821A46506B1A4A12689B
:100AC000904203D3184A1268821A04E0164A126848
:100AD000C2F1FF3202441146134A106040F6B832A8
:100AE000914203D90022114B1A701BE00F4A127871
:100AF000082A0BDAB1F5487F08D340F698029142F4
:100B000004D80B4B094C247823F81410074A1278A8
:100B1000521C064B1A701A461278082A02DB012270
:100B2000044B1A7000BF10BD2C00002028000020CC
:100B3000340000203000002000B58BB001210846B1
:100B400000F05CF80121084600F078F84FF480705E
:100B5000099002208DF8280003208DF8290000203C
:100B60008DF82A0001208DF82B0009A91D48FFF7F8
:100B7000FBFD012208211B48FFF73EFE5320ADF884
:100B8000180044F61F6007900020ADF82000ADF873
:100B90001A008DF8220006A9134800F041FB6020DE
:100BA000ADF804000120ADF806000020ADF81000FB
:100BB0004FF47A70039001A90B4800F0E9FA08217C
:100BC000094800F023FB0121074800F0BAFA01218F
:100BD000054800F0CEFA0121034800F0BEFA0BB040
:100BE00000BD0000000002400000014001494863D0
:100BF00070470000000001407047000029B1064A1C
:100C000012680243044B1A6004E0034A12688243EC
:100C1000014B1A60704700003038024029B1064A83
:100C200012680243044B1A6004E0034A12688243CC
:100C3000014B1A60704700004038024029B1064A53
:100C400012680243044B1A6004E0034A12688243AC
:100C5000014B1A6070470000443802401248006897
:100C600040F001001049086000200F490831086079
:100C70000D4800680D4908400B4908600C48091DE3
:100C800008600C480849843108600748006820F46F
:100C9000802005490860002003490C3108600249A2
:100CA0008C3108607047000000380240FFFFF6EA10
:100CB0001030002400300020F0B500210022002474
:100CC000022500260223324F3F6807F00C0121B1B4
:100CD000042905D0082937D105E02E4F076036E0FA
:100CE0002D4F076033E02A4F3F1F3F68C7F3805600
:100CF000274F3F1F3F6807F03F036EB1264FB7FBFA
:100D0000F3F7DFF88CC0ACF1040CDCF800C0CCF3D6
:100D1000881C07FB0CF40CE01E4FB7FBF3F7DFF861
:100D200070C0ACF1040CDCF800C0CCF3881C07FBED
:100D30000CF4174F3F1F3F68C7F301477F1C7D002E
:100D4000B4FBF5F7076002E0124F076000BF00BF79
:100D50000F4F3F6807F0F0010909104F7A5C0768F0
:100D6000D74047600A4F3F6807F4E051890A0B4FAC
:100D70007A5C4768D7408760054F3F6807F4604159
:100D8000490B064F7A5C4768D740C760F0BD00004A
:100D9000083802400024F40040787D01140000204F
:100DA00010B501460022002300204A11012A02D179
:100DB0000A4C236808E0022A03D1084C70342368E7
:100DC00002E0064C7434236801F01F0201249440B1
:100DD0001C400CB1012000E0002010BD0038024092
:100DE0000248006800F00C0070470000083802401C
:100DF00001460020034A106820F0F000084310600C
:100E00007047000008380240014908607047000040
:100E10000000474201460020034A106820F4E050D9
:100E20000843106070470000083802400146002067
:100E3000034A106820F4604040EAC1001060704727
:100E40000838024001490866704700000000474228
:100E500070B5049C41EA82150126C6EB530645EAAB
:100E60000645054345EA0465014E356070BD000046
:100E70000438024001460020034A106820F00300B5
:100E800008431060704700000838024070470000B7
:100E90000CB50020019000903348006840F4803089
:100EA0003149086000BF3048006800F4003000900D
:100EB0000198401C0190009818B90198B0F5A04F16
:100EC000F1D12948006800F4003010B101200090F1
:100ED00001E0002000900098012844D122484030D1
:100EE000006840F080502049403108601F48006889
:100EF00040F440401D4908601B48083000681A490A
:100F0000083108600846006808600846006840F438
:100F1000805008601648091F0860081F006840F0EC
:100F20008070091F086000BF0F48006800F0007063
:100F30000028F9D040F202700E4908600A480830D3
:100F4000006820F00300084908310860084600687E
:100F500040F00200086000BF03480830006800F05D
:100F60000C000828F8D10CBD003802400070004089
:100F700019544107003C0240704708B5FFF76EFE68
:100F80000120FFF741FF00BF2120FFF709FF0028E4
:100F9000FAD0072002235422082100900020FFF7F6
:100FA00057FF0120FFF74EFF00BF3920FFF7F8FE83
:100FB0000028FAD00220FFF7D1FB0120FFF7BCFB8D
:100FC0000120FFF7A7FB0120FFF792FB0020FFF7AE
:100FD0000FFF4FF48050FFF71DFF0020FFF726FFA3
:100FE0000220FFF747FF00BFFFF7FAFE0828FBD1FA
:100FF00008BD000070B50020002202230024022159
:10100000274D2D6805F00C0020B1042806D00828D3
:1010100034D107E0234D244E356033E0234D224E7A
:1010200035602FE01E4D2D1F2D68C5F380541C4DDB
:101030002D1F2D6805F03F0154B11C4DB5FBF1F596
:10104000174E361F3668C6F3881605FB06F209E010
:10105000144DB5FBF1F5124E361F3668C6F38816EF
:1010600005FB06F20E4D2D1F2D68C5F301456D1CC5
:101070006B00B2FBF3F50C4E356003E0094D0A4EF0
:10108000356000BF00BF064D2D68C5F30315084E3F
:10109000705D054D2D68C540034E356070BD000084
:1010A000083802400024F4000000002040787D0150
:1010B0000400002010B51548006840F47000134982
:1010C00008601348006840F00100114908600020E2
:1010D0000F49083108600E4800680E4908400C4965
:1010E00008600D48091D0860081F006820F4802072
:1010F000091F0860002006490C310860FFF7C8FE90
:101100004FF0006001498039086010BD88ED00E0B3
:1011100000380240FFFFF6FE1030002410B5FFF744
:101120002CFFFFF767FFFFF7ABFA4FF4E131012027
:10113000FFF7DCFBFFF73CFC10BD00B5FFF7ACFC94
:1011400000BD21B1028842F08002028004E00288E2
:101150004FF67F731A400280704721B1028842F037
:101160000102028004E002884FF6FE731A400280FA
:10117000704731B1B0F8442042F40042A0F8442056
:1011800005E0B0F84420C2F30E02A0F844207047F6
:1011900070B5002400220023058C4FF6FE76354002
:1011A0000584028C8388048B4FF68F752C40B51E06
:1011B0002C400D882C43751E2A408D892A434D886A
:1011C0002A43104DA84202D00F4DA84213D14FF62A
:1011D000F7752A40CD892A434FF6FB752A408D8842
:1011E0002A434FF6FF652B404FF6FF552B400D8AE3
:1011F0002B434D8A2B43838004838D68456302848F
:1012000070BD000000000140000401400A460021BA
:10121000018B4FF6F77319401143018370470000AB
:1012200000220288184B98420ED0184B98420BD0DF
:10123000B0F1804F08D0164B984205D0154B98421C
:1012400002D0154B984204D14FF68F731A404B8849
:101250001A43124B984207D0114B984204D04FF6D4
:10126000FF431A400B891A4302804B68C3620B8804
:101270000385054B984202D0044B984201D18B7AEA
:10128000038601238382704700000140000401406F
:101290000004004000080040000C00400010004026
:1012A0000014004021B1828942F40052828104E09E
:1012B00082894DF6FF731A408281704702460020F2
:1012C000B1F5007F00D100BF13880B400BB10120A6
:1012D00000E00020704700002DE9FF4705460E465C
:1012E0000024A14600BFA046B08900B100BF2C8AEF
:1012F00024F44054F08804432C82AC8941F20C6001
:101300008443B08831890843718908430443AC8120
:10131000AC8A24F44074B0890443AC826846FFF779
:10132000CBFC2048854202D01F48854202D1DDF81F
:101330000C9001E0DDF80890A88900F4004040B16D
:1013400009EBC90000EB091031684900B0FBF1F767
:1013500007E009EBC90000EB091031688900B0FB18
:10136000F1F76420B7FBF0F004012009642101FBD0
:101370001078A88900F4004040B1322000EBC8008A
:10138000B0FBF1F000F00700044308E0322000EB6E
:1013900008106421B0FBF1F000F00F0004432C8131
:1013A000BDE8FF87001001400014014070B50546FC
:1013B0000E462846FFF78CFA044604B970BD00BFFC
:1013C00080212068FFF77AFF0028F9D03146206895
:1013D00000F009F800BF40212068FFF76FFF0028E8
:1013E000F9D000BFEAE7C1F308028280704770B508
:1013F00005460C4604B970BD04E014F8011B2846EC
:10140000FFF7D4FF20780028F7D100BFF3E74FF4AF
:101410001651016000218180C18001810C21418130
:1014200000218181704700BFFEE730380A2801D2D1
:101430000120704700207047FFF770FEFFF77CFB2C
:101440000CA10120FFF7D3FF13E0FFF799FA68B171
:101450000220FFF7A1FA04462046FFF727FA0546C7
:101460002846FFF7C3FBFFF7EDF900BF1420FFF795
:101470002BF9EAE73D3D3D2050574D202B205050A1
:101480004D20696E697469616C697A6564203D3DBF
:101490003D0D0A004FF04070E1EE100A7047000069
:1014A0000010014010000000010000000000024098
:1014B0000100000000020004090A07000044004087
:1014C00000000200000000000000024001000000D7
:1014D00004000800020307000400000800000000E8
:1014E0000000000200010000100000000C150008C0
:1014F0000000002034000000D00100084015000862
:101500003400002074060000EC01000800BD010555
:1015100000000000000000000102030406070809A3
:101520000000000001020304010203040607080989
:1015300000000000000000000000000000000000AB
:040000050800019559
:00000001FF
