:020000040800F2
:10000000E00600203D020008FD090008F50900088F
:10001000F9090008EF050008EF0F000800000000D4
:10002000000000000000000000000000D90B0008E4
:10003000F305000800000000990A0008C50C00083C
:10004000570200085702000857020008570200082C
:10005000570200085702000857020008570200081C
:10006000570200085702000857020008570200080C
:1000700057020008570200085702000857020008FC
:10008000570200085702000857020008000000004D
:1000900000000000000000000000000057020008FF
:1000A00057020008570200085702000857020008CC
:1000B00057020008570200085702000857020008BC
:1000C00057020008570200085702000857020008AC
:1000D0005702000857020008710D000800000000D8
:1000E00057020008570200085702000800000000ED
:1000F000000000000000000000000000570200089F
:1001000000000000570200085702000857020008CC
:1001100000000000000000000000000000000000DF
:10012000570200085702000857020008570200084B
:10013000570200080000000000000000000000005E
:10014000000000000000000000000000570200084E
:10015000570200085702000857020008570200081B
:1001600057020008570200080000000000000000CD
:10017000000000000000000000000000000000007F
:10018000000000005702000800000000000000000E
:100190005702000800F002F800F041F80AA090E8C9
:1001A000000C82448344AAF10107DA4501D100F032
:1001B00036F8AFF2090EBAE80F0013F0010F18BFBE
:1001C000FB1A43F001031847A80F0000C80F0000F6
:1001D000103A24BF78C878C1FAD8520724BF30C873
:1001E00030C144BF04680C60704700000023002445
:1001F00000250026103A28BF78C1FBD8520728BF37
:1002000030C148BF0B607047752900F04B8000205B
:1002100070471FB500F0A6FF1FBD10B510BD00F060
:10022000ADF91146FFF7F5FF00F0E4FE00F0CBF961
:1002300003B4FFF7F2FF03BC00F0D2F9094880478E
:1002400009480047FEE7FEE7FEE7FEE7FEE7FEE7B8
:10025000FEE7FEE7FEE7FEE704480549054A064BD0
:1002600070470000C90C000895010008E00000205C
:10027000E0060020E0020020E00200200FB41CB5E0
:10028000074B06AA7B4469460090059800F037F9B1
:100290000020694600F046F91CBC5DF814FB000024
:1002A0009D0200002DE9F0410646002410687529E2
:1002B000314616A510D0AFF30080002802DA404284
:1002C00013A507E031688A0701D512A502E04907A6
:1002D00004D511A5012401E0AFF3008000210A221A
:1002E00006F1240709E0B0FBF2FCB0FBF2F302FBDD
:1002F0001C00303078541846491C0028F3D123469E
:100300002A463046BDE8F04100F09BB800000000EE
:100310002D0000002B000000200000002DE9F0411E
:100320000F460546002028622846E968884770B3D2
:10033000252805D0D5E901219047286A401CF2E71D
:10034000E9682846002688476C2804460AD0682CAD
:1003500008D04C2C35D06A2C31D0742C31D07A2C6A
:100360002FD016E0E968064628468847B042044682
:1003700008D16C2E23D04FF480662846E968884760
:10038000044606E06C2E03D04FF4807601E01EE0B8
:100390004026E4B1A4F14100192802D8203446F4E3
:1003A00000663A46214628462E60FFF72DFF60B1D1
:1003B000012808D0FF1D27F007070837B4E780267B
:1003C000DBE70026D9E73F1DAEE72046B2E7286A03
:1003D000BDE8F08130B505460B462A4613F8014BBF
:1003E00012F8010B08B1A042F8D01CB1002802D0CD
:1003F0006D1CF1E7284630BD4FF000020429C0F023
:10040000128010F0030C00F09480CCF1040CBCF1CD
:10041000020F18BF00F8012BA8BF20F8022BA1EB98
:100420000C0100F086B85FEAC17C24BF00F8012B04
:1004300000F8012B48BF00F8012B70477047704748
:1004400070472DE9F0470D4699469246044600F163
:1004500024080168880604D5E06921F010012160B4
:1004600000E00120A84201DD471B00E00027A16950
:100470007A1902EB0900081AA0612078C00602D49C
:100480002046AFF30080002608E0D4E901211AF8E5
:1004900006009047206A401C761C20624E45F4DB23
:1004A0002078C0060AD52046AFF3008006E0D4E9E4
:1004B000012130209047206A401C2062381EA7F19D
:1004C0000107F4DC07E0D4E9012118F805009047A2
:1004D000206A401C2062281EA5F10105F3DC20469D
:1004E000AFF300802078000602D50220BDE8F08737
:1004F0000120FBE701694A1C02610878704700B5DA
:100500008FB0CDE901310021059105497944CDE94C
:10051000031011466846FFF701FF0FB000BD000051
:10052000E5FFFFFF0A6802F8010B0A6070474FF011
:10053000000200B5134694469646203922BFA0E833
:100540000C50A0E80C50B1F12001BFF4F7AF09073F
:1005500028BFA0E80C5048BF0CC05DF804EB890030
:1005600028BF40F8042B08BF704748BF20F8022B73
:1005700011F0804F18BF00F8012B7047754600F04E
:100580002BF8AE4605006946534620F00700854625
:1005900018B020B5FFF760FEBDE820404FF0000620
:1005A0004FF000074FF000084FF0000B21F007015B
:1005B000AC46ACE8C009ACE8C009ACE8C009ACE89E
:1005C000C0098D46704710B50446AFF30080204641
:1005D000BDE81040FFF72CBE004870477C000020AB
:1005E00001491820ABBEFEE726000200704700BF9D
:1005F000FEE7704701B500E000BF0098411E009182
:100600000028F9D108BD00001CB50C200090022084
:100610008DF804008DF8050000208DF806000120FB
:100620008DF8070069461A4800F034F807220221C5
:10063000174800F077F807220321154800F072F8F8
:100640002020009001208DF8040002208DF8050084
:1006500000208DF806008DF8070069460C4800F070
:1006600019F80220009001208DF8040002208DF876
:10067000050000208DF806008DF807006946044843
:1006800000F008F80221024800F06FF81CBD0000DD
:1006900000000240F0B50A4600210023002400BFFC
:1006A0003DE0012505FA01F3156805EA03049C42C3
:1006B00034D105684F000326BE40B5430560157967
:1006C0004E00B5400668354305601579012D02D00E
:1006D0001579022D16D185684F000326BE40B5431B
:1006E000856055794E00B54086683543856045681C
:1006F00001268E40B5434560456896798E40B6B276
:1007000035434560C5684F000326BE40B543C5600C
:10071000D5794E00B540C6683543C560491C1029DF
:10072000BFD3F0BDF0B5002300244D07ED0E02FA53
:1007300005F3CE1000F1200555F826504E07F70EB0
:100740000F26BE40B543CF1000F1200646F82750D3
:10075000CE1000F1200555F8265045EA0304CE10CE
:1007600000F1200545F82640F0BD0A04826170477B
:100770008161704710B592B004460021104800F026
:100780005BFB0E940020ADF83C00ADF83E00ADF8E8
:100790004000ADF844000C20ADF842000EA9084816
:1007A00000F0B2FB0121064800F046FB224605A1FD
:1007B00001A8FFF763FD01A800F024FB12B010BDF3
:1007C0000044004042617564726174652063686131
:1007D0006E67656420746F3A20256C750D0A000001
:1007E00010B530A000F00EFB4FF41650FFF7C2FF1B
:1007F0003448FFF7FFFE34A000F004FB0221384824
:10080000FFF7B6FF3748FFF7F5FE4FF41640FFF746
:10081000B1FF2C48FFF7EEFE33A000F0F3FA39A049
:1008200000F0F0FA3948FFF7E5FE39A000F0EAFAE7
:100830003648FFF7DFFE3BA000F0E4FA3348FFF74D
:10084000D9FE3CA000F0DEFA3048FFF7D3FE3EA010
:1008500000F0D8FA2D48FFF7CDFE3EA000F0D2FA06
:100860002A48FFF7C7FE3FA000F0CCFA02211C483F
:10087000FFF77BFF1B48FFF7BDFE4FF41650FFF755
:1008800079FF1048FFF7B6FE3CA000F0BBFA43A08A
:1008900000F0B8FA47A000F0B5FA4BA000F0B2FAA9
:1008A00010BD000048432D303520436F6E666967E8
:1008B00075726174696F6E2053746172742E2E2E7E
:1008C0000D0A000040420F00456E746572696E6744
:1008D000204154206D6F64652E2E2E0D0A000000FD
:1008E0000000024080841E0053656E64696E6720BC
:1008F000415420636F6D6D616E64732E2E2E0D0A50
:100900000000000041540D0A0000000020A1070073
:1009100041542B4E414D453D53544D33325F42546B
:100920000D0A000041542B505357443D34333231AB
:100930000D0A000041542B554152543D3936303098
:100940002C302C300D0A000041542B524F4C453DA9
:10095000300D0A0041542B434D4F44453D310D0AA3
:100960000000000045786974696E67204154206D6D
:100970006F64652E2E2E0D0A0000000048432D30B6
:100980003520436F6E66696775726174696F6E209A
:10099000436F6D706C657465210D0A00446576695E
:1009A0006365204E616D653A2053544D33325F428A
:1009B000540D0A0050494E20436F64653A20343389
:1009C00032310D0A000000005365617263682066D1
:1009D0006F72202753544D33325F42542720696E83
:1009E00020426C7565746F6F7468206C6973740D48
:1009F0000A00000000BFFEE700BFFEE7704708B531
:100A000026208DF8000000208DF801008DF80200EE
:100A100001208DF80300684600F002F808BD0000D0
:100A200070B5002100230F22C4781CB3174C246832
:100A300004F4E064C4F5E064C4F30721C1F10404E4
:100A4000E3B20A4144789C40E1B2847814402143E7
:100A50000C07210E0E4C05786155047804F01F0533
:100A60000124AC4005786D11AD0005F1E025C5F815
:100A7000004109E0047804F01F050124AC40054D55
:100A80000678761145F8264070BD00000CED00E0B8
:100A900000E400E080E100E07047000029B1064A70
:100AA00012680243044B1A6004E0034A126882434E
:100AB000014B1A60704700003038024029B1064AE5
:100AC00012680243044B1A6004E0034A126882432E
:100AD000014B1A60704700004038024010B50121F8
:100AE0000846FFF7DBFF01214804FFF7E7FF10BDD1
:100AF000F0B5002100220024022500260223324FF7
:100B00003F6807F00C0121B1042905D0082937D12D
:100B100005E02E4F076036E02D4F076033E02A4F87
:100B20003F1F3F68C7F38056274F3F1F3F6807F0BE
:100B30003F036EB1264FB7FBF3F7DFF88CC0ACF183
:100B4000040CDCF800C0CCF3881C07FB0CF40CE0B0
:100B50001E4FB7FBF3F7DFF870C0ACF1040CDCF804
:100B600000C0CCF3881C07FB0CF4174F3F1F3F68F5
:100B7000C7F301477F1C7D00B4FBF5F7076002E077
:100B8000124F076000BF00BF0F4F3F6807F0F00132
:100B90000909104F7A5C0768D74047600A4F3F68E1
:100BA00007F4E051890A0B4F7A5C4768D7408760A9
:100BB000054F3F6807F46041490B064F7A5C476870
:100BC000D740C760F0BD0000083802400024F400A0
:100BD00040787D0100000020704700000CB5002027
:100BE000019000903348006840F48030314908603B
:100BF00000BF3048006800F4003000900198401CAD
:100C00000190009818B90198B0F5A04FF1D129488A
:100C1000006800F4003010B10120009001E00020D5
:100C200000900098012844D122484030006840F0EC
:100C300080502049403108601F48006840F440401F
:100C40001D4908601B48083000681A4908310860CF
:100C50000846006808600846006840F48050086054
:100C60001648091F0860081F006840F08070091FBF
:100C7000086000BF0F48006800F000700028F9D03D
:100C800040F202700E4908600A480830006820F0FF
:100C900003000849083108600846006840F0020077
:100CA000086000BF03480830006800F00C00082806
:100CB000F8D10CBD003802400070004019544107C3
:100CC000003C02407047000010B51548006840F431
:100CD0007000134908601348006840F00100114992
:100CE000086000200F49083108600E4800680E496E
:100CF00008400C4908600D48091D0860081F00687D
:100D000020F48020091F0860002006490C3108608B
:100D1000FFF764FF4FF0006001498039086010BDA3
:100D200088ED00E000380240FFFFF6FE103000249E
:100D30001FB5044600940020ADF80400ADF806008D
:100D4000ADF80800ADF80C000C20ADF80A006946BB
:100D5000064800F0D9F8012240F22551034800F07E
:100D6000AEF80121014800F067F81FBD00440040C3
:100D700010B540F22551174800F077F848B340F21B
:100D80002551144800F049F8124800F027F9C4B280
:100D900011480078632815D20F490878411C0E4A83
:100DA00011700E490C540A2C03D0104600786328A9
:100DB0000ED300200949084A1278885401200849B6
:100DC000087005E0002004490870012004490870FB
:100DD00000BF10BD0044004010000020180000209B
:100DE0001100002010B5044600BF8021044800F027
:100DF0002FF80028F9D02146014800F0F4F810BD82
:100E00000044004010B5044603E014F8010BFFF75E
:100E1000E9FF20780028F8D110BD10B5002200238A
:100E200040F66A14A14200D100BF0A120124944086
:100E3000A3B2DC43048010BD21B1828942F4005288
:100E4000828104E082894DF6FF731A4082817047E7
:100E500002460020B1F5007F00D100BF13880B408F
:100E60000BB1012000E00020704770B5024600245D
:100E700000230025002040F66A16B14200D100BFD1
:100E8000C1F3421501F01F03012606FA03F3012DF9
:100E900002D19689334006E0022D02D1168A3340F2
:100EA00001E0968A33400C12012606FA04F41688F3
:100EB000344013B10CB1012000E0002070BDF0B54A
:100EC0000346002400260025002040F66A17B94298
:100ED00000D100BF1846C1F3421401F01F060127DC
:100EE00007FA06F5012C01D10C3004E0022C01D1E7
:100EF000103000E014301AB107682F43076002E099
:100F00000768AF430760F0BD2DE9FF4705460E4671
:100F10000024A14600BFA046B08900B100BF2C8AC2
:100F200024F44054F08804432C82AC8941F20C60D4
:100F30008443B08831890843718908430443AC81F4
:100F4000AC8A24F44074B0890443AC826846FFF74D
:100F5000CFFD2048854202D01F48854202D1DDF8EE
:100F60000C9001E0DDF80890A88900F4004040B141
:100F700009EBC90000EB091031684900B0FBF1F73B
:100F800007E009EBC90000EB091031688900B0FBEC
:100F9000F1F76420B7FBF0F004012009642101FBA4
:100FA0001078A88900F4004040B1322000EBC8005E
:100FB000B0FBF1F000F00700044308E0322000EB42
:100FC00008106421B0FBF1F000F00F0004432C8105
:100FD000BDE8FF87001001400014014001468888E9
:100FE000C0F308007047C1F308028280704700BF59
:100FF000FEE70000FFF772FDFFF706FB4FF4165007
:10100000FFF796FEFFF7FBFC26A0FFF7FBFE2DA0E7
:10101000FFF7F8FEFFF7E4FB30A0FFF7F3FE40E038
:101020003A480078002830D039A0FFF7EBFE3B4863
:10103000FFF7E8FE3AA13948FFF7CCF938B1202193
:101040003948FFF795FB39A0FFF7DCFE14E03AA121
:101050003248FFF7BFF938B120213348FFF785FB4D
:1010600037A0FFF7CFFE07E038A12C48FFF7B2F911
:1010700010B137A0FFF7C6FE00202449087036499A
:10108000087064212548FFF7B7F934480168006803
:10109000401C324A10603248814202D90020114679
:1010A0000860BDE753544D33322048432D3035207E
:1010B000426C7565746F6F746820546573740D0AA3
:1010C00000000000496E697469616C697A696E6735
:1010D0002048432D30352E2E2E0D0A0048432D304A
:1010E00035205265616479212053656172636820FF
:1010F000666F722064657669636520696E20426C54
:101100007565746F6F74680D0A000000110000208F
:1011100052656365697665643A2000001800002016
:101120004C45445F4F4E0000000002404C454420B7
:101130004F4E0D0A000000004C45445F4F464600EC
:101140004C4544204F46460D0A0000004154000023
:101150004F4B0D0A0000000010000020140000207A
:1011600040420F004FF04070E1EE100A704700005F
:10117000901100080000002018000000D0010008B5
:10118000A811000818000020C8060000EC010008A3
:10119000000000000102030401020304060708091D
:0811A000000000000000000047
:040000050800019559
:00000001FF
